:1000000009C017C015C014C013C012C011C010C061
:100010000FC00EC011241FBECFE9CDBF20E0A0E667
:10002000B0E001C01D92A136B207E1F70DD06BC060
:10003000E7CF1F920F920FB60F92112400000F907E
:100040000FBE0F901F90189587B3896187BBC19A27
:100050008BB780648BBF85B78C7F85BF789422E097
:1000600091E033E080916000813031F0C8F182305E
:1000700079F08330D1F0F6CF83B7816083BF85B745
:10008000816085BF88B3886188BB20936000EACF18
:10009000B19BE8CFE7E9FAE33197F1F700C0000040
:1000A000B19BE0CF30936000DDCF83B7887F83BF03
:1000B00088B3877E88BB02B600FC02C0C49A01C028
:1000C000C39AFFE749EA53E0F15040405040E1F75E
:1000D00000C0000088B3877E88BB10926000C2CF4A
:1000E00012BE9093600085B78C7F85BF789485B7EA
:1000F000877E806185BF85B7806285BF889585B71B
:0A0100008F7D85BFAFCFF894FFCFCD
:00000001FF
